:0400000085EF00F098
:10000800F77DF77DF77DF77DF77DF77DF77DF77D48
:10001800F77DF77DF77DF77DF77DF77DF77DF77D38
:10002800F77DF77DF77DF77DF77DF77DF77DF77D28
:10003800F77DF77DF77DF77DF77DF77DF77D77789D
:10004800F77DF77DF77DF77DF77DF77DF77DF77D08
:10005800F77DF77DF77DF77DF77DF77DF77DF77DF8
:10006800F77DF77DF77DF77DF77DF77DF77DF77DE8
:10007800F77DF77DF77DF77D4200F77DF77DF77D0A
:10008800F77DF77DF77DF77DF77DF77DF77DF77DC8
:10009800357AF77DF77DF77D4200F77DF77DF77DAF
:1000A800F77DF77DF77DF77DF77DF77DF77DF77DA8
:1000B800F77DF77DF77DF77DF77DF77DF77DF77D98
:1000C800F77DF77DF77DF77DF77DF77DF77DF77D88
:1000D800F77DF77DF77DF77DF77DF77DF77DF77D78
:1000E8004200F77DF77DF77DF77DF77DF77DF77D9A
:1000F800F77DF77DF77DF77DF77DF77DF77DF77D58
:06010800FF0057EFF0F0CC
:10F60600001F001C001F001E001F001E001F001F01
:10F61600001E001F001E001F00819FE0FC407E8030
:10F62600FC0000534420436172643A2072656164B1
:10F636003531323A20435243206572726F72202868
:10F646002530347820213D20253034782C207265F1
:10F656007472793D2564290A0D00496D616765203C
:10F6660066696C652025732F445249564525632EDD
:10F6760044534B2069732061737369676E65642018
:10F68600746F2064726976652025630A0D006469CB
:10F69600736B5F696F63746C3A20706472763D2594
:10F6A600642C20636D643D25642C20627566663D7E
:10F6B6003078256C783A207265733D25640A0D0012
:10F6C600534420436172643A202072656164353187
:10F6D600323A20616464723D25386C642C206F6672
:10F6E60066733D25642C20636F756E743D25640A30
:10F6F6000D00534420436172643A20777269746541
:10F706003531323A20616464723D25386C642C20B0
:10F716006F6666733D25642C20636F756E743D2598
:10F72600640A0D00534420436172643A207772697B
:10F7360074653531323A206661696C656420746F90
:10F746002067657420746F6B656E2C2074696D6517
:10F756006F75740A0D00534420436172643A207732
:10F76600726974653531323A2074696D656F7574E6
:10F776002C20726573706F6E736520697320253057
:10F7860032780A0D00534420436172643A20434D97
:10F796004435382C2052333D2530327820253032FE
:10F7A600782025303278202530327820253032787E
:10F7B6000A0D0025733A204552524F523A20636C87
:10F7C6006F636B2073706565642025642069732000
:10F7D6006E6F7420737570706F727465640A0D00B5
:10F7E600534420436172643A20434D44382C2052DE
:10F7F600373D253032782025303278202530327852
:10F80600202530327820253032780A0D006469735D
:10F816006B5F696F63746C3A20706472763D256421
:10F826002C20636D643D25643A204E6F7420686118
:10F836006E646C65642E0A0D006469736B5F726595
:10F8460061643A2020706472763D25642C207365CD
:10F8560063746F723D256C642C20636F756E743D06
:10F8660025640A0D006469736B5F77726974653A83
:10F8760020706472763D25642C20736563746F7204
:10F886003D256C642C20636F756E743D25640A0DEE
:10F8960000534420436172643A2043435320284373
:10F8A6006172642043617061636974792053746185
:10F8B6007475732920697320300A0D005344204360
:10F8C6006172643A2077726974653531323A204341
:10F8D6005243206572726F72202872657472793D88
:10F8E6002564290A0D00534420436172643A20437B
:10F8F60061726420706F7765722075702073746111
:10F906007475732062697320697320300A0D007262
:10F91600656164204D425220706172746974696F2A
:10F926006E207461626C6520617420736563746F08
:10F936007220300A0D00534420436172643A20530A
:10F94600444843206F7220534458432063617264D5
:10F956002064657465637465640A0D0025733A2036
:10F966004552524F523A206D6F64652025642069D6
:10F9760073206E6F7420737570706F727465640A8D
:10F986000D004C6F6164202573203A20416472207B
:10F996003D202530366C782C2053697A65203D2031
:10F9A600253034780D0A00534420436172643A20AE
:10F9B600696E697469616C697A65202E2E2E2073D2
:10F9C60075636365656465640A0D0053442043618D
:10F9D60072643A20756E657870656374656420722A
:10F9E6006573706F6E736520253032780A0D00538B
:10F9F6004420436172643A2041434D4434312072BD
:10FA06006573706F6E736520697320253032780ACE
:10FA16000D00534420436172643A2077726974651D
:10FA26003531323A20746F6B656E2069732025304C
:10FA360032780A0D004D656D6F72792030303030A6
:10FA46003030202D202530366C5848202564204B38
:10FA560042204F4B0D0A00534420436172643A2002
:10FA6600434D44353920726573706F6E7365206936
:10FA76007320253032780A0D0070617274697469DA
:10FA86006F6E207374617274732061742073656382
:10FA9600746F7220256C640A0D00665F7772697454
:10FAA6006528293A204552524F52207265733D25EA
:10FAB600642C206E3D25640A0D00665F72656164E4
:10FAC60028293A204552524F52207265733D2564CB
:10FAD6002C206E3D25640A0D006661696C65642004
:10FAE600746F20777269746520736563746F722012
:10FAF600256C640A0D000D0A536574204461746513
:10FB060028253034642F253032642F25303264297D
:10FB16000D0A006661696C656420746F2072656108
:10FB26006420736563746F7220256C640A0D004D42
:10FB3600455A36384B385F52414D204669726D77CB
:10FB460061726520526576322E31004465746563B4
:10FB5600742025732F4449534B2E494D47202E2E92
:10FB66002E204F4B0A0D000A0D5344204361726448
:10FB76003A20696E697469616C697A65202E2E2E49
:10FB86000A0D005365742054696D6528253032646A
:10FB96003A253032643A25303264290D0A00507213
:10FBA6006F6772616D2046696C65204C6F616420D9
:10FBB6004572726F722E0D0A004661696C6564208B
:10FBC600746F206D6F756E742053442043617264A8
:10FBD6002E0A0D00554E4B4E4F574E20756E696DD1
:10FBE6006F6E20434D442825303278290D0A005384
:10FBF6004420436172643A2041434D4434312C2001
:10FC060052313D253032780A0D006661696C6564B3
:10FC160020746F207265616420736563746F72204F
:10FC2600300A0D004661696C656420746F206F7040
:10FC3600656E20534420436172642E0A0D000A4DFE
:10FC4600656D6F7279206572726F722061742025FE
:10FC560030366C58480A0D006469736B5F696E69CB
:10FC66007469616C697A65282564292E2E2E0A0D21
:10FC76000044533133303720576974652049324385
:10FC8600206572726F72210D0A004E6F2025732057
:10FC96006469726563746F727920666F756E642E1F
:10FCA6000D0A00534420436172643A206E6F74203B
:10FCB6007375706F70727465640A0D005344204347
:10FCC6006172643A20434D44302C2052313D253038
:10FCD60032780A0D002020202020202020202020FD
:10FCE6002020202020202020202020200D007761A9
:10FCF600697420666F722070726F6772616D6D65D0
:10FD060072202E2E2E0D0025732535337320434881
:10FD160045434B53554D3A20253032780A0D004D58
:10FD2600656D6F727920303030303030202D2025CF
:10FD360030366C58480D004932432062757320698D
:10FD460073206E6F742065786973742E0A0D0070C7
:10FD56006879736963616C206472697665722021C3
:10FD66003D20300A0D004461746520253034642F2F
:10FD7600253032642F25303264203D200054696DD1
:10FD86006520253032643A253032643A25303264B3
:10FD9600203D20000A4D656D6F7279207772617083
:10FDA6002061726F756E642E0A0D00665F6C736556
:10FDB600656B28293A204552524F522025640A0D78
:10FDC600006E6F204641543332207061727469743C
:10FDD600696F6E0A0D00303A544F442854696D65B8
:10FDE600204F6620446179290A0D004472697665C0
:10FDF60028256429204552524F522025640A0D00B9
:10FE0600665F73796E6328293A204552524F522015
:10FE160025640A0D00557365204E434F3120253267
:10FE26002E33664D487A0D0A006E6F204D425220E1
:10FE36007369676E61747572650A0D0044533133D8
:10FE4600303720525443206D6F64756C6520005323
:10FE56004420436172643A2074696D656F75740A53
:10FE66000D006E6F2076616C696420766F6C756D1F
:10FE7600650A0D00534420436172643A207265613D
:10FE860064792E0A0D005350495F53445F636F6EC9
:10FE9600666967757265004E6F20626F6F742064C5
:10FEA60069736B2E0A0D006973206E6F7420657876
:10FEB6006973742E0D0A002A2B2C3A3B3C3D3E5B9F
:10FEC6005D7C223F7F0025732F44524956452563AA
:10FED6002E44534B00313A756E696D6F6E36386B32
:10FEE6000A0D004E6F20534420436172643F0A0D91
:10FEF60000333A43502F4D2D36384B0A0D00323A17
:10FF0600626173696336386B0A0D00424153494397
:10FF160036384B2E42494E00554D4F4E5F36384BC4
:10FF26002E42494E000A0D53656C6563743A0A0DFC
:10FF360000426F6172643A2025730A0D00446574AD
:10FF46006563742025730A0D0025732F4449534BAE
:10FF56002E494D470043504D36384B2E42494E00F0
:10FF6600343A46555A49580A0D004342494F532ED2
:10FF760042494E0046555A49582E42494E00657828
:10FF8600697374732E0D0A0025732530366C783A22
:10FF96000046415433322020200043504D444953FB
:10FFA6004B53002573253034783A004D4F4E2E4280
:10FFB600494E004F534449534B5300286E756C6CA1
:10FFC60029006661743A20002025303278002573B6
:10FFD6002F2573006275663A2000303A2F2F0052A3
:10FFE600443A200057523A200053443A2000696EA2
:0AFFF60066006E616E003F200000FF
:020000040001F9
:1000000083C6D9F484C6DAF4DE6ADD6A81C604F5F3
:1000100082C605F568ECD2F004C592F605C593F6E4
:10002000060193BF18EF80F016EF80F01BEF80F011
:100030000B0E61EF85F0D8909235D96E9335DA6E5C
:10004000220ED926070EDA22DEC4ADF6DDC4AEF6E6
:10005000AD51AE11D8A42FEF80F031EF80F034EF26
:1000600080F00C0E61EF85F083C6D9F484C6DAF413
:10007000ADC6DEF4AEC6DDF48591ADC6D9F4AEC62C
:10008000DAF4DF50D8B447EF80F049EF80F070EF3A
:1000900080F020EE01F0AD51D926AE51DA22DF50CA
:1000A000EAECF2F00601A26FA2B159EF80F05BEF2B
:1000B00080F070EF80F08551D8B461EF80F063EF8D
:1000C00080F06DEF80F0A2A568EF80F06AEF80F01D
:1000D0006DEF80F00A0E61EF85F0000E61EF85F0A4
:1000E000ADC6D9F4AEC6DAF4DF6A20EE01F0AD5148
:1000F000D926AE51DA22DF5029ECBEF00601A26FFC
:10010000A2A185EF80F087EF80F08AEF80F0030EE8
:1001100061EF85F08551D8B490EF80F092EF80F0D8
:100120009BEF80F0A2A597EF80F099EF80F09BEF16
:1001300080F06AEF80F0ADC632F6AEC633F6000E40
:10014000356F000E346FD1ECC9F032C6ABF633C652
:10015000ACF6040E0601AB19AC11D8A4B2EF80F0D6
:10016000B4EF80F0B7EF80F0010E61EF85F0AC5195
:1001700009E1020EAB5DD8A0C0EF80F0C2EF80F0C5
:10018000C5EF80F00D0E61EF85F020EE2CF0AD5143
:10019000D926AE51DA22DEC49EF6DEC49FF6DEC456
:1001A000A0F6DEC4A1F63B0EAD25046E000EAE2116
:1001B000056E3AECFAF0020E05180410D8B4E3EF1D
:1001C00080F0E5EF80F0E7EF80F0C2EF80F0460EC0
:1001D0000601AD25046E000EAE21056E3AECFAF074
:1001E00004C5A7F605C5A8F60601A96BAA6BA75119
:1001F000A811A911AA11D8A400EF81F002EF81F093
:1002000012EF81F0540EAD25046E000EAE21056E86
:10021000BFECEBF004C5A7F605C5A8F606C5A9F620
:1002200007C5AAF6060120EE18F0AD51D926AE5149
:10023000DA22A7C6DEF4A8C6DEF4A9C6DEF4AAC692
:10024000DEF420EE40F0AD51D926AE51DA2210EEA8
:1002500003F0AD51E126AE51E222DFC4E7F420EE17
:1002600003F0AD51D926AE51DA22DE04D8B43BEF0B
:1002700081F03DEF81F04EEF81F020EE03F0AD51C3
:10028000D926AE51DA22020EDE18D8B44AEF81F038
:100290004CEF81F04EEF81F0C2EF80F0A7C604F57D
:1002A000A8C605F5A9C606F5AAC607F520EE03F00F
:1002B000AD51D926AE51DA22DF50866F8651086ED5
:1002C000096A0A6A0B6A91ECF5F004C5A7F605C540
:1002D000A8F606C5A9F607C5AAF6060120EE3DF068
:1002E000AD51D926AE51DA22DF50866F876B20EEF2
:1002F0000AF0AD51D926AE51DA2286C6DEF487C6A1
:10030000DDF420EE0AF0AD51D926AE51DA22DE50EE
:10031000DE10D8B48EEF81F090EF81F0C2EF80F064
:1003200020EE0AF0AD51D926AE51DA22DEC486F6AF
:10033000DDC487F620EE0AF0AD51D926AE51DA229F
:10034000DEC488F6DDC489F6FF0E88258A6FFF0EAD
:1003500089218B6F86518A158C6F87518B158D6F14
:100360008C518D11D8B4B7EF81F0B9EF81F0BBEFAC
:1003700081F0C2EF80F0410EAD25046E000EAE217B
:10038000056E3AECFAF0060120EE08F0AD51D926E0
:10039000AE51DA2204C5DEF405C5DDF420EE08F026
:1003A000AD51D926AE51DA22DEC486F6DDC487F619
:1003B0000F0E8617000E871786518711D8B4E3EF0A
:1003C00081F0E5EF81F0E7EF81F0C2EF80F0430EBE
:1003D000AD25046E000EAE21056E3AECFAF004C5B0
:1003E0009AF605C59BF606019C6B9D6B9A519B1175
:1003F0009C119D11D8A4FFEF81F001EF82F011EF65
:1004000082F0500EAD25046E000EAE21056EBFECDD
:10041000EBF004C59AF605C59BF606C59CF607C524
:100420009DF63E0E0601AD25046E000EAE21056E52
:100430003AECFAF004C598F605C599F6060198510C
:100440009911D8A426EF82F028EF82F02AEF82F0EB
:10045000C2EF80F020EE08F0AD51D926AE51DA227D
:10046000DEC486F6DDC487F6040E886FD890873325
:100470008633882F36EF82F098518625896F9951FF
:1004800087218A6F8B6BD8B08B2B8C6BA7518925FA
:10049000946FA8518A21956FA9518B21966FAA510B
:1004A0008C21976F94519A5D95519B5996519C5907
:1004B00097519D59D8B05FEF82F061EF82F063EF02
:1004C00082F0C2EF80F094519A5D046E95519B5971
:1004D000056E96519C59066E97519D59076E20EEF8
:1004E0000AF0AD51D926AE51DA22DEC486F6DDC45B
:1004F00087F686C608F587C609F50A6A0B6ACEEC48
:10050000EEF004C5A3F605C5A4F606C5A5F607C515
:10051000A6F60601A351A411A511A611D8A493EF24
:1005200082F095EF82F097EF82F0C2EF80F0000E3C
:10053000AC6F000EAB6FF60EA35DFF0EA459FF0E5D
:10054000A5590F0EA659D8B0A8EF82F0AAEF82F0F5
:10055000AEEF82F0000EAC6F030EAB6FA651A5118B
:1005600009E1F60EA35DFF0EA459D8B0BAEF82F0F0
:10057000BCEF82F0C0EF82F0000EAC6F020EAB6FEA
:10058000A651A51109E1F60EA35D0F0EA459D8B02E
:10059000CCEF82F0CEEF82F0D2EF82F0000EAC6FA3
:1005A000010EAB6FAB51AC11D8A4D9EF82F0DBEFE9
:1005B00082F0DDEF82F0C2EF80F0020EA325866F9D
:1005C000000EA421876F000EA521886F000EA621C2
:1005D000896F20EE14F0AD51D926AE51DA2286C6CD
:1005E000DEF487C6DEF488C6DEF489C6DEF420EECB
:1005F0001CF0AD51D926AE51DA229EC6DEF49FC65C
:10060000DEF4A0C6DEF4A1C6DEF498519E25866F06
:1006100099519F21876F000EA021886F000EA121A4
:10062000896F20EE20F0AD51D926AE51DA2286C670
:10063000DEF487C6DEF488C6DEF489C6DEF49451A3
:100640009E25866F95519F21876F9651A021886FB7
:100650009751A121896F20EE28F0AD51D926AE51D6
:10066000DA2286C6DEF487C6DEF488C6DEF489C6E2
:10067000DEF4030EAB19AC11D8A441EF83F043EFC5
:1006800083F0A0EF83F05A0EAD25046E000EAE216C
:10069000056E3AECFAF004500510D8B452EF83F02E
:1006A00054EF83F056EF83F0C2EF80F0060120EEA6
:1006B00008F0AD51D926AE51DA22DE50DE10D8B4A2
:1006C00064EF83F066EF83F068EF83F0C2EF80F0B1
:1006D0005C0EAD25046E000EAE21056EBFECEBF096
:1006E000060120EE24F0AD51D926AE51DA2204C520
:1006F000DEF405C5DEF406C5DEF407C5DEF420EE43
:1007000014F0AD51D926AE51DA22DEC486F6DEC42D
:1007100087F6DEC488F6DEC489F6020ED8908637E6
:10072000873788378937E82E8EEF83F086C68EF6B6
:1007300087C68FF688C690F689C691F640EF84F09A
:1007400020EE08F0AD51D926AE51DA22DE50DE108F
:10075000D8A4ADEF83F0AFEF83F0B1EF83F0C2EF39
:1007600080F020EE20F0AD51D926AE51DA22DEC461
:1007700086F6DEC487F6DEC488F6DEC489F6A751A5
:1007800086258A6FA85187218B6FA95188218C6F8C
:10079000AA5189218D6F20EE24F0AD51D926AE519A
:1007A000DA228AC6DEF48BC6DEF48CC6DEF48DC691
:1007B000DEF4020EAB19AC11D8B4E1EF83F0E3EF35
:1007C00083F029EF84F020EE14F0AD51D926AE511C
:1007D000DA22DEC486F6DEC487F6DEC488F6DEC41E
:1007E00089F6010E86158A6F000E87158B6F000E35
:1007F00088158C6F000E89158D6F20EE14F0AD51A9
:10080000D926AE51DA22DEC404F5DEC405F5DEC415
:1008100006F5DEC407F5030E086E000E096E000E25
:100820000A6E000E0B6E91ECF5F0D890073206328E
:100830000532043206018A5104248E6F8B51052043
:100840008F6F8C510620906F8D510720916F40EF74
:1008500084F020EE14F0AD51D926AE51DA22DEC478
:1008600086F6DEC487F6DEC488F6DEC489F6D89044
:1008700086358E6F87358F6F8835906F8935916F8C
:10088000FF0E8E25866F010E8F21876F000E90213F
:10089000886F000E9121896F0A0E54EF84F0D89072
:1008A0008933883387338633E82E4FEF84F020EE88
:1008B00018F0AD51D926AE51DA228651DE5C87514F
:1008C000DE588851DE588951DE58D8B06AEF84F07E
:1008D0006CEF84F06EEF84F0C2EF80F020EE10F049
:1008E000AD51D926AE51DA22FF0EDE6EFF0EDE6E5E
:1008F000FF0EDE6EFF0EDD6EDD52DD5210EE0CF0EF
:10090000AD51E126AE51E222DEC4E6F4DEC4E6F4E7
:10091000DEC4E6F4DEC4E6F420EE05F0AD51D926DF
:10092000AE51DA22800EDF6E030EAB19AC11D8A4E3
:100930009CEF84F09EEF84F04BEF85F0600EAD25C8
:10094000046E000EAE21056E3AECFAF004040510B8
:10095000D8A4ADEF84F0AFEF84F04BEF85F0ADC6D7
:1009600019F6AEC61AF6010E06019E251B6F000E83
:100970009F211C6F000EA0211D6F000EA1211E6F74
:100980002EECEAF00009D8A4C8EF84F0CAEF84F096
:100990004BEF85F0060120EE05F0AD51D926AE51A2
:1009A000DA22DF6A2E0EAD25046E020EAE21056E30
:1009B0003AECFAF0550E041807E1AA0E0518D8A46F
:1009C000E4EF84F0E6EF84F04BEF85F0300E0601A3
:1009D000AD25046E000EAE21056EBFECEBF0520E9D
:1009E00004180DE1520E05180AE1610E061807E120
:1009F000410E0718D8A4FFEF84F001EF85F04BEF0C
:100A000085F0140E0601AD25046E020EAE21056EB2
:100A1000BFECEBF0720E04180DE1720E05180AE13E
:100A2000410E061807E1610E0718D8A41AEF85F0E9
:100A30001CEF85F04BEF85F0180E0601AD25046E16
:100A4000020EAE21056EBFECEBF0060120EE10F0B9
:100A5000AD51D926AE51DA2204C5DEF405C5DEF467
:100A600006C5DEF407C5DEF41C0EAD25046E020ECD
:100A7000AE21056EBFECEBF0060120EE0CF0AD519F
:100A8000D926AE51DA2204C5DEF405C5DEF406C56A
:100A9000DEF407C5DEF4ADC6D9F4AEC6DAF4ABC6F3
:100AA000DFF40701204B212B060120EE06F0AD51AB
:100AB000D926AE51DA2220C7DEF421C7DDF46DEF6E
:100AC00080F012000501886B62C589F563C58AF55F
:100AD00064C58BF565C58CF58CBF73EF85F071EF40
:100AE00085F087EF85F0010E886F89C504F58AC50A
:100AF00005F58BC506F58CC507F51EECFAF004C5A7
:100B000089F505C58AF506C58BF507C58CF5000E78
:100B100005018E6F000E8D6F1AC77CF51BC77DF522
:100B20008851D8B496EF85F098EF85F0ACEF85F05A
:100B30008851D8A49EEF85F0A0EF85F0A6EF85F050
:100B4000000E6E6F2B0E6D6FAAEF85F0000E6E6FAC
:100B50002D0E6D6F6DC588F589C504F58AC505F53F
:100B60008BC506F58CC507F5FEECE3F00404051013
:100B7000D8A4BDEF85F0BFEF85F0F2EF85F0050159
:100B80008851D8B4C6EF85F0C8EF85F0D1EF85F075
:100B900088C500F87C07D8A07D07000E8E6F010E77
:100BA0008D6F000E8D25046E080E8E21056EF40EDD
:100BB000066EFF0E076EABECF9F00501FD0E7C270B
:100BC000FF0E7D2360C515F561C516F5000E176E85
:100BD000080E186E7CC519F57DC51AF520ECEFF0EE
:100BE00092EF8AF089C504F58AC505F58BC506F52F
:100BF0008CC507F5FEECE3F004500510D8A403EF14
:100C000086F005EF86F025EF86F005018851D8B40F
:100C10000CEF86F00EEF86F017EF86F088C500F82F
:100C20007C07D8A07D07000E8E6F010E8D6F000E21
:100C30008D25046E080E8E21056EF80E066EFF0ED1
:100C4000076EABECF9F0DDEF85F0000E05018F6F5C
:100C5000000E906F800E916F3F0E926F000E776FB7
:100C6000000E766F89C504F58AC505F58BC506F5B6
:100C70008CC507F5000E086E000E096E000E0A6E98
:100C8000000E0B6E82ECEDF0D8B049EF86F04BEF22
:100C900086F02AEF87F058EF86F078C58FF579C592
:100CA00090F57AC591F57BC592F50501764B772BCA
:100CB0008FC512F590C513F591C514F592C515F5BC
:100CC000000E166E000E176E200E186E410E196E75
:100CD0001DECAEF012C578F513C579F514C57AF59B
:100CE00015C57BF505017851895D046E79518A59E6
:100CF000056E7A518B59066E7B518C59076E9AECB2
:100D0000F7F007BE8FEF86F007500610051009E1D7
:100D1000020E045CD8A08FEF86F091EF86F04DEFC5
:100D200086F078C52BF579C52CF57AC52DF57BC5F0
:100D30002EF589C52FF58AC530F58BC531F58CC5E3
:100D400032F57BECE2F0D8A0A8EF86F0AAEF86F0AF
:100D50004DEF86F005018F51895D046E90518A59DF
:100D6000056E91518B59066E92518C59076E9AEC13
:100D7000F7F007BEC9EF86F007500610051007E12F
:100D8000020E045CD8B0C7EF86F0C9EF86F011EF11
:100D900087F08FC589F590C58AF591C58BF592C509
:100DA0008CF52AEF87F08FC52BF590C52CF591C5F2
:100DB0002DF592C52EF5000E2F6E000E306E200E12
:100DC000316E410E326ECFECB5F02BC58FF52CC5D0
:100DD00090F52DC591F52EC592F505017607D8A0A1
:100DE00077078F51895D046E90518A59056E915134
:100DF0008B59066E92518C59076E9AECF7F007BE2C
:100E00000FEF87F007500610051007E1020E045C93
:100E1000D8B00DEF87F00FEF87F011EF87F0C9EF33
:100E200086F089C52BF58AC52CF58BC52DF58CC5AB
:100E30002EF58FC52FF590C530F591C531F592C5CA
:100E400032F57BECE2F0D8A028EF87F02AEF87F0AC
:100E5000D3EF86F066C570F570C571F507011DBF4B
:100E600034EF87F036EF87F03CEF87F01CC769F569
:100E70001DC76AF541EF87F0000E05016A6F060E87
:100E8000696F69C574F56AC575F50501744B752BF5
:100E9000660E7119D8A44FEF87F051EF87F071EF0C
:100EA00087F077BF58EF87F056EF87F064EF87F051
:100EB000000E8F6F000E906F800E916F3F0E926F3D
:100EC000000E776F000E766F670E7019D8B46BEF57
:100ED00087F06DEF87F071EF87F0765174277751C7
:100EE0007523000E876F000E866F89C57EF58AC553
:100EF0007FF58BC580F58CC581F58FC578F590C5DC
:100F000079F591C57AF592C57BF502EF88F07EC53B
:100F10002BF57FC52CF580C52DF581C52EF58FC528
:100F20002FF590C530F591C531F592C532F5CFEC6E
:100F3000B5F02BC544F52CC545F52DC546F52EC598
:100F400047F5CCECC7F044C582F545C583F546C5E9
:100F500084F547C585F582C504F583C505F584C5C7
:100F600006F585C507F5F8ECE1F004C572F505C591
:100F700073F57EC52BF57FC52CF580C52DF581C594
:100F80002EF582C516F583C517F584C518F585C5F8
:100F900019F58FC512F590C513F591C514F592C5D5
:100FA00015F51DECAEF012C52FF513C530F514C5BF
:100FB00031F515C532F504ECF9F02BC57EF52CC5DD
:100FC0007FF52DC580F52EC581F58FC52BF590C514
:100FD0002CF591C52DF592C52EF5000E2F6E000E45
:100FE000306E200E316E410E326ECFECB5F02BC557
:100FF0008FF52CC590F52DC591F52EC592F50501FF
:10100000864B872B7451865D8751800A586E7551C7
:10101000800A5858D8A00FEF88F011EF88F087EFBA
:1010200087F08FC512F590C513F591C514F592C5DB
:1010300015F5000E166E000E176EA00E186E400EFF
:10104000196E1DECAEF012C582F513C583F514C5FB
:1010500084F515C585F57EC52BF57FC52CF580C5B6
:101060002DF581C52EF582C52FF583C530F584C5D4
:1010700031F585C532F57BECE2F0D8B042EF88F06F
:1010800044EF88F04FEF88F0000E0501826F000EEC
:10109000836F000E846F000E856F78EF88F07EC539
:1010A00004F57FC505F580C506F581C507F582C540
:1010B00008F583C509F584C50AF585C50BF582ECED
:1010C000EDF0D8A066EF88F068EF88F078EF88F050
:1010D000050172B16EEF88F070EF88F078EF88F05C
:1010E000000E826F000E836F000E846F000E856FFE
:1010F00089C504F58AC505F58BC506F58CC507F5C8
:1011000082C508F583C509F584C50AF585C50BF5C3
:1011100068ECA5F004C57EF505C57FF506C580F52C
:1011200007C581F57EC52BF57FC52CF580C52DF54E
:1011300081C52EF5000E166E000E176E200E186E6D
:10114000410E196E78C512F579C513F57AC514F5F7
:101150007BC515F51DECAEF012C52FF513C530F5A6
:1011600014C531F515C532F57BECE2F0D8A0BBEF24
:1011700088F0BDEF88F0E6EF88F00501764B772B1D
:1011800078C512F579C513F57AC514F57BC515F543
:10119000000E166E000E176E200E186E410E196EA0
:1011A0001DECAEF012C578F513C579F514C57AF5C6
:1011B00015C57BF5660E05017119D8A4E2EF88F01C
:1011C000E4EF88F0E6EF88F0744B752B78C58FF567
:1011D00079C590F57AC591F57BC592F576C567F529
:1011E00077C568F505016F6B000E6C6F000E6B6FB5
:1011F000000E876F000E866FE3EF89F07EC52BF53A
:101200007FC52CF580C52DF581C52EF58FC52FF531
:1012100090C530F591C531F592C532F5CFECB5F0FA
:101220002BC544F52CC545F52DC546F52EC547F50E
:10123000CCECC7F044C582F545C583F546C584F5B9
:1012400047C585F582C504F583C505F584C506F552
:1012500085C507F5F8ECE1F005BE3AEF89F00550D9
:1012600007E10A0E045CD8B038EF89F03AEF89F054
:101270004AEF89F082C504F583C505F584C506F5F6
:1012800085C507F5F8ECE1F004C572F505C573F501
:101290004FEF89F0000E0501736F090E726F0501A3
:1012A0006F51D8A456EF89F058EF89F080EF89F09C
:1012B00068BF5FEF89F05DEF89F080EF89F0000E85
:1012C0008D25D96E080E8E21DA6E2E0EDF6E8D4BB7
:1012D0008E2B7C07D8A07D07010E6F6F80EF89F001
:1012E000000E8D25D96E080E8E21DA6E300EDF6E5F
:1012F0008D4B8E2B7C07D8A07D076B07D8A06C0781
:101300006B516C11D8A487EF89F089EF89F070EFE9
:1013100089F0000E8D25D96E080E8E21DA6E72517D
:10132000300FDF6E8D4B8E2B7C07D8A07D077EC5DE
:101330002BF57FC52CF580C52DF581C52EF582C511
:1013400016F583C517F584C518F585C519F58FC53C
:1013500012F590C513F591C514F592C515F51DEC60
:10136000AEF012C52FF513C530F514C531F515C50E
:1013700032F504ECF9F02BC57EF52CC57FF52DC5B3
:1013800080F52EC581F58FC52BF590C52CF591C53F
:101390002DF592C52EF5000E2F6E000E306E200E2C
:1013A000316E410E326ECFECB5F02BC58FF52CC5EA
:1013B00090F52DC591F52EC592F505016707D8A0CA
:1013C0006807864B872B7451865D8751800A586E5B
:1013D0007551800A5858D8B0F0EF89F0F2EF89F0D3
:1013E00000EF8AF08EBFFEEF89F08E5109E14B0EBF
:1013F0008D5DD8A0FEEF89F000EF8AF0FEEF88F057
:10140000000E876F4F0E866F000E8625D96E080E70
:101410008721DA6EDF6A000E586E080E596E8D5104
:10142000585E8E51595A86515824046E875159205E
:10143000056E000E066E080E076E8DC508F58EC58A
:1014400009F591ECF8F005018D51865D8D6F8E5197
:1014500087598E6F8851D8A430EF8AF033EF8AF025
:10146000010E34EF8AF0000E866F876B5CA23BEFB3
:101470008AF03DEF8AF06BEF8AF04DEF8AF08D072E
:10148000D8A08E07000E8D25D96E080E8E21DA6E3B
:10149000300EDF6E7C07D8A07D077C51865D8751BA
:1014A000800A586E7D51800A5858D8B05AEF8AF099
:1014B0005CEF8AF06BEF8AF08D51865D8751800A70
:1014C000586E8E51800A5858D8A069EF8AF06BEF99
:1014D0008AF03FEF8AF08851D8B471EF8AF073EF49
:1014E0008AF07EEF8AF08D07D8A08E07000E8D253A
:1014F000D96E080E8E21DA6E88C5DFF486517C5FC6
:1015000087517D5B60C515F561C516F5000E8D250B
:10151000176E080E8E21186E7CC519F57DC51AF55B
:1015200020ECEFF0120064C67BF665C67CF668C658
:10153000D9F469C6DAF4DE6ADD6A62C6BCF563C650
:10154000BDF58B0E0501BE6F060EBF6F7EECE3F09E
:1015500006017A6F7A51D8A4B0EF8AF0B2EF8AF020
:10156000C2EF8AF020EE0FF06251D9266351DA22E1
:10157000DF507A6F7A51D8B4C0EF8AF0C2EF8AF0A8
:10158000C5EF8AF07A51D6EF8EF020EE0EF0625160
:10159000D9266351DA22DFB2D0EF8AF0D2EF8AF097
:1015A000D5EF8AF0070ED6EF8EF020EE10F06251E4
:1015B000D9266351DA2210EE10F06251E126635110
:1015C000E222E6C46EF6E6C46FF6E6C470F6E6C440
:1015D00071F666516E25726F67516F21736F000E41
:1015E0007021746F000E7121756FDE50725DDE50D8
:1015F0007359DE507459DE507559D8B002EF8BF034
:1016000004EF8BF012EF8BF020EE10F06251D92630
:101610006351DA22DEC46AF6DDC46BF66A1D666FBA
:101620006B1D676F66516711D8A419EF8BF01BEF24
:101630008BF01DEF8BF0CDEF8EF020EE10F06251AD
:10164000D9266351DA22FF0EDE146A6F010EDE1412
:101650006B6F000EDE146C6F000EDE146D6F6A513E
:101660006B116C116D11D8A438EF8BF03AEF8BF041
:1016700011EF8EF020EE10F06251D9266351DA227C
:10168000DEC46AF6DEC46BF6DEC46CF6DEC46DF64C
:101690000A0E50EF8BF0D8906D336C336B336A3396
:1016A000E82E4BEF8BF020EE0AF08B51D9268C51AF
:1016B000DA22DEC46EF6DDC46FF6FF0E6E25706FA3
:1016C000FF0E6F21716F6A5170157D6F6B5171152F
:1016D0007E6F7D517E11D8A470EF8BF072EF8BF08E
:1016E0003AEF8CF020EE10F06251D9266351DA22E5
:1016F000DE50DE10DE10DE10D8A481EF8BF083EF19
:101700008BF0B4EF8BF020EE06F06251D9266351D6
:10171000DA22DEC481F6DEC482F6DEC483F6DEC4DD
:1017200084F68151821183118411D8A49AEF8BF031
:101730009CEF8BF0D0EF8BF062C645F663C646F6A1
:10174000000E476F000E486F000E496F000E4A6F83
:10175000BDEC9DF045C681F646C682F647C683F6C7
:1017600048C684F6D0EF8BF062C645F663C646F6EF
:1017700020EE14F06251D9266351DA22DEC447F616
:10178000DEC448F6DEC449F6DEC44AF6BDEC9DF080
:1017900045C681F646C682F647C683F648C684F635
:1017A00006018151821183118411D8A4DAEF8BF0E4
:1017B000DCEF8BF0DEEF8BF0CDEF8EF08105821148
:1017C00083118411D8A4E7EF8BF0E9EF8BF0F4EFED
:1017D0008BF020EE0FF06251D9266351DA22020E0F
:1017E000DF6E020ED6EF8EF081290AE1822908E130
:1017F000832906E18429D8A400EF8CF002EF8CF055
:101800000DEF8CF020EE0FF06251D9266351DA22F1
:10181000010EDF6E010ED6EF8EF020EE14F0625155
:10182000D9266351DA2281C6DEF482C6DEF483C68D
:10183000DEF484C6DEF420EE06F06251D926635150
:10184000DA22DE50DE10DE10DE10D8A42AEF8CF093
:101850002CEF8CF03AEF8CF020EE06F06251D92696
:101860006351DA2281C6DEF482C6DEF483C6DEF47A
:1018700084C6DEF420EE0EF06251D9266351DA22DE
:10188000DFAE45EF8CF047EF8CF08AEF8CF0220E44
:1018900062250501F76F000E060163210501F86F4F
:1018A000060120EE18F06251D9266351DA22DEC417
:1018B000F9F5DEC4FAF5DEC4FBF5DEC4FCF5000E76
:1018C0000501FE6F010EFD6F060120EE01F08B5148
:1018D000D9268C51DA22DF508DECD5F00009D8B42E
:1018E00074EF8CF076EF8CF081EF8CF0060120EE37
:1018F0000FF06251D9266351DA22010EDF6E0AEF32
:101900008CF0060120EE0EF06251D9266351DA22E6
:101910007F0EDF168BC610F58CC611F520EE14F085
:101920006251D9266351DA22DEC412F5DEC413F502
:10193000DEC414F5DEC415F5C8ECE9F010C587F671
:1019400011C588F612C589F613C58AF606018751B6
:10195000881189118A11D8A4B0EF8CF0B2EF8CF005
:10196000BCEF8CF020EE0FF06251D9266351DA22E1
:10197000020EDF6EF1EF8BF07D5187277E518823B9
:10198000000E8923000E8A2366C66AF667C66BF6C8
:10199000090E6C6FD8906B336A336C2FCAEF8CF0E2
:1019A0006AC67FF66BC680F67F518011D8B4DBEF34
:1019B0008CF0DDEF8CF0A1EF8DF07F517D256A6F0B
:1019C00080517E216B6F20EE0AF08B51D9268C510D
:1019D000DA226A51DE5C6B51DE58D8B0F2EF8CF03F
:1019E000F4EF8CF004EF8DF020EE0AF08B51D92645
:1019F0008C51DA22DEC46AF6DDC46BF67D516A5D75
:101A00007F6F7E516B59806F7BC6F7F57CC6F8F50A
:101A100087C6F9F588C6FAF589C6FBF58AC6FCF5CE
:101A20007FC6FDF580C6FEF520EE01F08B51D9266C
:101A30008C51DA22DF508DECD5F00009D8B423EFB9
:101A40008DF025EF8DF030EF8DF0060120EE0FF0D8
:101A50006251D9266351DA22010EDF6E0AEF8CF053
:101A600006017F516A6F80516B6F6C6B6D6B20EE5E
:101A700018F06251D9266351DA22DEC46EF6DEC454
:101A80006FF6DEC470F6DEC471F687516E5D726F5C
:101A900088516F59736F89517059746F8A51715998
:101AA000756F6A51725D6B5173596C5174596D51F8
:101AB0007559D8B05EEF8DF060EF8DF090EF8DF03E
:101AC000220E6225046E000E6321056E20EE18F0D2
:101AD0006251D9266351DA22DEC46AF6DDC46BF6A0
:101AE00087516A5F88516B5B090ED8906A376B37F4
:101AF000E82E75EF8DF06A517B25066E6B517C21C7
:101B0000076E020E096E000E086E91ECF8F00601E9
:101B100020EE0EF06251D9266351DA227F0EDF16D5
:101B20007FC66AF680C66BF6090ED8906A376B37A7
:101B3000E82E95EF8DF06AC685F66BC686F667EFE0
:101B40008EF020EE18F06251D9266351DA228751C7
:101B5000DE180FE18851DE180CE18951DE1809E129
:101B60008A51DE18D8B4B7EF8DF0B9EF8DF002EFDF
:101B70008EF020EE0AF06251D9266351DA2210EE7F
:101B800010F06251E1266351E222DE50E65CDE5045
:101B9000E658DE50E658DE50E658D8B0D2EF8DF069
:101BA000D4EF8DF002EF8EF0220E6225006F000E52
:101BB0006321016F87C602F688C603F689C604F65C
:101BC0008AC605F6000E076F010E066F20EE01F0C3
:101BD0008B51D9268C51DA22DF5000ECD4F0000969
:101BE000D8B4F5EF8DF0F7EF8DF002EF8EF006012F
:101BF00020EE0FF06251D9266351DA22010EDF6E1A
:101C00000AEF8CF0060120EE18F06251D9266351DC
:101C1000DA2287C6DEF488C6DEF489C6DEF48AC618
:101C2000DEF420EE10F06251D9266351DA22DEC4D0
:101C30006AF6DDC46BF6FF0E6A156C6F010E6B154C
:101C40006D6F6C510008856F6D51D8A0E82A0208AD
:101C5000866F8551665D86516759D8B032EF8EF038
:101C600034EF8EF038EF8EF066C685F667C686F6DE
:101C700020EE10F06251D9266351DA22DEC46AF6F2
:101C8000DDC46BF6FF0E6A156C6F010E6B156D6F80
:101C90006C5162256E6F6D5163216F6F220E6E2540
:101CA000046E000E6F21056E7BC606F57CC607F537
:101CB00085C608F586C609F591ECF8F0060120EE18
:101CC0000EF06251D9266351DA22000EDB8E855167
:101CD000665F8651675B68C6D9F469C6DAF48551D8
:101CE000DE268651DD2285517B2786517C2320EE1E
:101CF00010F06251D9266351DA228551DE268651D1
:101D0000DE22000EDE22DE2220EE10F06251D92605
:101D10006351DA2210EE0AF06251E1266351E222A9
:101D2000DE50E65CDE50E658DE50E658DE50E658FF
:101D3000D8A09DEF8EF09FEF8EF0AFEF8EF020EEEB
:101D40000AF06251D9266351DA22DEC476F6DEC487
:101D500077F6DEC478F6DEC479F6BDEF8EF020EEBD
:101D600010F06251D9266351DA22DEC476F6DEC461
:101D700077F6DEC478F6DEC479F620EE0AF062511A
:101D8000D9266351DA2276C6DEF477C6DEF478C649
:101D9000DEF479C6DEF412EF8BF020EE0EF0625125
:101DA000D9266351DA22000EDB8C000E120062C6C7
:101DB000BCF563C6BDF5850E0501BE6F060EBF6F8F
:101DC0007EECE3F00601806F8051D8A4EAEF8EF03C
:101DD000ECEF8EF0F4EF8EF020EE0FF06251D9268A
:101DE0006351DA22DF50806F8051D8B4FAEF8EF061
:101DF000FCEF8EF0FFEF8EF08051DDEF92F020EEE1
:101E00000AF06251D9266351DA226451DE5C6551D1
:101E1000DE586651DE586751DE58D8B012EF8FF0A9
:101E200014EF8FF02FEF8FF020EE0EF06251D926D5
:101E30006351DA22DFB21FEF8FF021EF8FF02FEF27
:101E40008FF020EE0AF06251D9266351DA22DEC407
:101E500064F6DEC465F6DEC466F6DEC467F620EE20
:101E600010F06251D9266351DA22DEC478F6DEC45E
:101E700079F6DEC47AF6DEC47BF6000E7C6F000EC7
:101E80007D6F000E7E6F000E7F6F20EE10F06251AE
:101E9000D9266351DA227CC6DEF47DC6DEF47EC626
:101EA000DEF47FC6DEF46451651166116711D8B4A3
:101EB0005CEF8FF05EEF8FF0E2EF91F020EE0AF032
:101EC0008551D9268651DA22DEC468F6DDC469F66A
:101ED00068516A6F69516B6F6C6B6D6B090ED890AE
:101EE0006A376B376C376D37E82E6FEF8FF06AC645
:101EF00081F66BC682F66CC683F66DC684F67851A1
:101F000079117A117B11D8B488EF8FF08AEF8FF0B6
:101F100027EF90F0FF0E6425046EFF0E6521056E1D
:101F2000FF0E6621066EFF0E6721076E81C608F55B
:101F300082C609F583C60AF584C60BF5CEECEEF031
:101F400004C568F605C569F606C56AF607C56BF6E9
:101F5000FF0E06017825046EFF0E7921056EFF0E37
:101F60007A21066EFF0E7B21076E81C608F582C6B8
:101F700009F583C60AF584C60BF5CEECEEF00450E5
:101F80000601685D0550695906506A5907506B593A
:101F9000D8A0CDEF8FF0CFEF8FF027EF90F0FF0EAE
:101FA0008125686FFF0E8221696FFF0E83216A6FA2
:101FB000FF0E84216B6F681D6C6F691D6D6F6A1D4C
:101FC0006E6F6B1D6F6FFF0E7825706FFF0E79219E
:101FD000716FFF0E7A21726FFF0E7B21736F6C5150
:101FE0007015746F6D517115756F6E517215766F36
:101FF0006F517315776F20EE10F06251D92663513F
:10200000DA2274C6DEF475C6DEF476C6DEF477C670
:10201000DEF420EE10F06251D9266351DA22DE5050
:10202000645FDE50655BDE50665BDD50675B20EE13
:1020300014F06251D9266351DA22DEC487F6DEC479
:1020400088F6DEC489F6DEC48AF6A2EF90F020EEB0
:1020500006F06251D9266351DA22DEC487F6DEC467
:1020600088F6DEC489F6DEC48AF6875188118911A4
:102070008A11D8A43EEF90F040EF90F094EF90F0EA
:1020800062C645F663C646F6000E476F000E486FFF
:10209000000E496F000E4A6FBDEC9DF045C687F6F5
:1020A00046C688F647C689F648C68AF606018705F9
:1020B000881189118A11D8A460EF90F062EF90F036
:1020C0006DEF90F020EE0FF06251D9266351DA22C5
:1020D000020EDF6E020EDDEF92F087290AE18829F9
:1020E00008E1892906E18A29D8A479EF90F07BEFED
:1020F00090F086EF90F020EE0FF06251D9266351F8
:10210000DA22010EDF6E010EDDEF92F020EE06F016
:102110006251D9266351DA2287C6DEF488C6DEF41E
:1021200089C6DEF48AC6DEF420EE14F06251D926A8
:102130006351DA2287C6DEF488C6DEF489C6DEF48F
:102140008AC6DEF48751881189118A11D8B4ABEFA1
:1021500090F0ADEF90F0E2EF91F067EF91F08151E8
:10216000645F8251655B8351665B8451675B20EEDF
:1021700010F06251D9266351DA228151DE26825154
:10218000DE228351DE228451DE2220EE0EF06251E7
:10219000D9266351DA22DFA2D0EF90F0D2EF90F08F
:1021A000FEEF90F062C645F663C646F687C647F670
:1021B00088C648F689C649F68AC64AF6BDEC9DF03F
:1021C00045C687F646C688F647C689F648C68AF6E3
:1021D00006018751881189118A11D8A4F2EF90F075
:1021E000F4EF90F014EF91F0000E646F000E656F45
:1021F000000E666F000E676F76EF91F062C624F6F0
:1022000063C625F687C626F688C627F689C628F649
:102210008AC629F630ECB0F024C687F625C688F6C3
:1022200026C689F627C68AF6060187290AE1882983
:1022300008E1892906E18A29D8A421EF91F023EF4A
:1022400091F02DEF91F020EE0FF06251D9266351FD
:10225000DA22010EDF6E83EF90F08A518911881126
:1022600009E1020E875DD8A038EF91F03AEF91F0C6
:102270004FEF91F020EE14F08551D9268651DA22E5
:10228000DE50875DDE508859DE508959DE508A590C
:10229000D8A04DEF91F04FEF91F059EF91F020EE73
:1022A0000FF06251D9266351DA22020EDF6E6AEF17
:1022B00090F020EE14F06251D9266351DA2287C6DD
:1022C000DEF488C6DEF489C6DEF48AC6DEF4645124
:1022D000815D655182596651835967518459D8A0EF
:1022E00074EF91F076EF91F0AFEF90F020EE10F0F8
:1022F0006251D9266351DA226451DE266551DE220D
:102300006651DE226751DE22FF0E6415686F010EF2
:102310006515696F000E66156A6F000E67156B6FA5
:10232000685169116A116B11D8B499EF91F09BEF64
:1023300091F0E2EF91F085C610F586C611F587C6DB
:1023400012F588C613F589C614F58AC615F5C8ECCA
:10235000E9F010C57CF611C57DF612C57EF613C5F1
:102360007FF606017C517D117E117F11D8A4BBEF51
:1023700091F0BDEF91F0C7EF91F020EE0FF06251B8
:10238000D9266351DA22020EDF6E6AEF90F064C63E
:1023900068F665C669F666C66AF667C66BF60A0E23
:1023A000D7EF91F0D8906B336A3369336833E82EF6
:1023B000D2EF91F068517C2769517D236A517E23C9
:1023C0006B517F2320EE10F06251D9266351DA223F
:1023D00010EE0AF06251E1266351E222DE50E65C23
:1023E000DE50E658DE50E658DE50E658D8B0FBEF37
:1023F00091F0FDEF91F019EF92F020EE10F06251A4
:10240000D9266351DA2210EE0AF06251E1266351B7
:10241000E222DEC4E6F4DEC4E6F4DEC4E6F4DEC4A2
:10242000E6F420EE0EF06251D9266351DA22000E56
:10243000DB8C20EE10F06251D9266351DA22FF0EB8
:10244000DE14686F010EDE14696F000EDE146A6F11
:10245000000EDE146B6F685169116A116B11D8B4EC
:1024600034EF92F036EF92F0FCEF8EF020EE18F0A1
:102470006251D9266351DA227C51DE180FE17D5179
:10248000DE180CE17E51DE1809E17F51DE18D8B468
:102490004CEF92F04EEF92F0FCEF8EF020EE0EF04B
:1024A0006251D9266351DA22DFAE59EF92F05BEF29
:1024B00092F09EEF92F0220E62250501F76F000E5A
:1024C000060163210501F86F060120EE18F0625144
:1024D000D9266351DA22DEC4F9F5DEC4FAF5DEC48A
:1024E000FBF5DEC4FCF5000E0501FE6F010EFD6F6D
:1024F000060120EE01F08551D9268651DA22DF50FF
:102500008DECD5F00009D8B488EF92F08AEF92F004
:1025100095EF92F0060120EE0FF06251D92663513B
:10252000DA22010EDF6E83EF90F0060120EE0EF04E
:102530006251D9266351DA227F0EDF16220E622500
:10254000006F000E6321016F7CC602F67DC603F6A4
:102550007EC604F67FC605F6000E076F010E066FF5
:1025600020EE01F08551D9268651DA22DF5000ECA9
:10257000D4F00009D8B4BFEF92F0C1EF92F0CCEFE5
:1025800092F0060120EE0FF06251D9266351DA2253
:10259000010EDF6E83EF90F0060120EE18F062511D
:1025A000D9266351DA227CC6DEF47DC6DEF47EC60F
:1025B000DEF47FC6DEF4FCEF8EF012000601AF51B0
:1025C000B011D8A4E6EF92F0E8EF92F0EBEF92F0C2
:1025D000090E9DEF96F03F0EB317B10E816F060EF8
:1025E000826FD40E836F060E846FB3C685F600EC3F
:1025F00080F00601D66FD651D8A401EF93F003EF17
:1026000093F08DEF96F0D4C6D7F6D5C6D8F6D70E90
:10261000846F060E856FB1C686F6B2C687F6BEEC2D
:10262000C6F00601D66FD651D8A419EF93F01BEF70
:1026300093F024EF93F0FEAF20EF93F022EF93F0AE
:1026400024EF93F0060ED66FB3C6B4F61C0EB41783
:10265000D8B42DEF93F02FEF93F04AEF94F0D651CA
:10266000D8B435EF93F037EF93F04BEF93F0040EBF
:10267000D619D8A43EEF93F040EF93F048EF93F0D3
:10268000D70E886F060E896F44ECE7F00601D66F0F
:10269000B38763EF93F0DBC6B4F6110EB417D8B46A
:1026A00054EF93F056EF93F05AEF93F0070ED66F76
:1026B00063EF93F0B3A55FEF93F061EF93F063EFF7
:1026C00093F0080ED66FD651D8A469EF93F06BEF54
:1026D00093F06DEF94F0B3A770EF93F072EF93F077
:1026E0006DEF94F0C2ECFBF004C5C0F605C5C1F671
:1026F00006C5C2F607C5C3F60E0E0601F125046E27
:10270000000EF221056EC0C606F5C1C607F5C2C6A9
:1027100008F5C3C609F55BECF5F0160E0601F125C8
:10272000046E000EF221056EC0C606F5C1C607F59F
:10273000C2C608F5C3C609F55BECF5F0D4C60BF5C7
:10274000D5C60CF5F1C60DF5F2C60EF5AEECF3F0FC
:102750000BC5C4F60CC5C5F60DC5C6F60EC5C7F645
:10276000060120EE0BF0F151D926F251DA22200EAB
:10277000DF6ED4C608F5D5C609F5F1C60AF5F2C66E
:102780000BF5000E0C6E000E0D6E000E0E6E000EA0
:102790000F6EB9ECF8F01C0E0601F125046E000E68
:1027A000F221056E000E066E000E076E000E086E1A
:1027B000000E096E5BECF5F0060120EE04F0D4513A
:1027C000D926D551DA22010EDF6EC451C511C611CA
:1027D000C711D8B4EEEF93F0F0EF93F06DEF94F0F3
:1027E00020EE2CF0D451D926D551DA22DEC4C8F619
:1027F000DEC4C9F6DEC4CAF6DEC4CBF6D70E456F1A
:10280000060E466FC4C647F6C5C648F6C6C649F6A4
:10281000C7C64AF6000E4B6F000E4C6F000E4D6F90
:10282000000E4E6F85ECC3F00601D66FD651D8A4CA
:102830001CEF94F01EEF94F06DEF94F0D4C619F6EF
:10284000D5C61AF6C8C61BF6C9C61CF6CAC61DF6FA
:10285000CBC61EF62EECEAF00601D66FFF0EC4259D
:10286000B46FFF0EC521B56FFF0EC621B66FFF0E08
:10287000C721B76F20EE0CF0D451D926D551DA22FA
:10288000B4C6DEF4B5C6DEF4B6C6DEF4B7C6DEF412
:102890006DEF94F0D651D8A450EF94F052EF94F02D
:1028A0006DEF94F0DBA957EF94F059EF94F05DEFE2
:1028B00094F0040ED66F6DEF94F0B3A362EF94F032
:1028C00064EF94F06DEF94F0DBA169EF94F06BEF9F
:1028D00094F06DEF94F0070ED66FD651D8A473EF35
:1028E00094F075EF94F09BEF94F0B3A77AEF94F027
:1028F0007CEF94F07DEF94F0B38D20EE2CF0D4516A
:10290000D926D551DA2210EE1CF0AF51E126B05194
:10291000E222DEC4E6F4DEC4E6F4DEC4E6F4DEC49D
:10292000E6F420EE20F0AF51D926B051DA22F1C6FC
:10293000DEF4F2C6DDF4D651D8A4A1EF94F0A3EFF3
:1029400094F08DEF96F0D4C60BF5D5C60CF5F1C614
:102950000DF5F2C60EF5AEECF3F0060120EE06F032
:10296000AF51D926B051DA220BC5DEF40CC5DEF426
:102970000DC5DEF40EC5DEF41C0EF125046E000E4E
:10298000F221056EBFECEBF0060120EE0AF0AF512C
:10299000D926B051DA2204C5DEF405C5DEF406C539
:1029A000DEF407C5DEF4AFC6D9F4B0C6DAF4D4C697
:1029B000DEF4D5C6DDF420EE06F0D451D926D5518B
:1029C000DA2210EE02F0AF51E126B051E222DEC46D
:1029D000E6F4DDC4E5F420EE0EF0AF51D926B05197
:1029E000DA22B3C6DFF420EE0FF0AF51D926B05192
:1029F000DA22DF6A20EE18F0AF51D926B051DA2280
:102A0000DE6ADE6ADE6ADD6A20EE10F0AF51D9269A
:102A1000B051DA22DE6ADE6ADE6ADD6A220EAF2596
:102A2000046E000EB021056E000E076E000E066EDD
:102A3000020E096E000E086E02ECFAF00601B3AB4E
:102A400024EF95F026EF95F08DEF96F020EE0AF04A
:102A5000AF51D926B051DA22DE50DE10DE10DE1082
:102A6000D8B435EF95F037EF95F08DEF96F020EE76
:102A70000AF0AF51D926B051DA2210EE10F0AF5162
:102A8000E126B051E222DEC4E6F4DEC4E6F4DEC4A0
:102A9000E6F4DEC4E6F420EE0AF0D451D926D5518E
:102AA000DA22DEC4B4F6DDC4B5F6B451B66FB55162
:102AB000B76FB86BB96B090ED890B637B737B83760
:102AC000B937E82E5CEF95F0B6C6BCF6B7C6BDF6D2
:102AD000B8C6BEF6B9C6BFF620EE06F0AF51D9268D
:102AE000B051DA22DEC4D0F6DEC4D1F6DEC4D2F6AE
:102AF000DEC4D3F620EE0AF0AF51D926B051DA2267
:102B0000DEC4CCF6DEC4CDF6DEC4CEF6DEC4CFF62F
:102B1000C8EF95F0AFC624F6B0C625F6D0C626F6A7
:102B2000D1C627F6D2C628F6D3C629F630ECB0F0C7
:102B300024C6D0F625C6D1F626C6D2F627C6D3F6C9
:102B40000601D351D211D11107E1020ED05DD8B0E8
:102B5000ACEF95F0AEEF95F0B0EF95F0020ED66FBA
:102B6000D0290AE1D12908E1D22906E1D329D8A444
:102B7000BCEF95F0BEEF95F0C0EF95F0010ED66F6B
:102B8000BC51CC5FBD51CD5BBE51CE5BBF51CF5B65
:102B9000D651D8A4CEEF95F0D0EF95F0DFEF95F0B9
:102BA000CC51BC5DCD51BD59CE51BE59CF51BF594D
:102BB000D8A0DDEF95F0DFEF95F08AEF95F020EEED
:102BC00014F0AF51D926B051DA22D0C6DEF4D1C606
:102BD000DEF4D2C6DEF4D3C6DEF4D651D8A4F3EFC9
:102BE00095F0F5EF95F08DEF96F0FF0ECC15B46FE4
:102BF000010ECD15B56F000ECE15B66F000ECF15B8
:102C0000B76FB451B511B611B711D8B40AEF96F039
:102C10000CEF96F08DEF96F0D4C610F5D5C611F5F1
:102C2000D0C612F5D1C613F5D2C614F5D3C615F524
:102C3000C8ECE9F010C5C8F611C5C9F612C5CAF648
:102C400013C5CBF60601C851C911CA11CB11D8A4BE
:102C50002CEF96F02EEF96F032EF96F0020ED66F34
:102C60008DEF96F0CCC6B4F6CDC6B5F6CEC6B6F6A8
:102C7000CFC6B7F60A0E42EF96F0D890B733B63308
:102C8000B533B433E82E3DEF96F0C851B425B86F94
:102C9000C951B521B96FCA51B621BA6FCB51B7210D
:102CA000BB6F20EE18F0AF51D926B051DA22B8C66A
:102CB000DEF4B9C6DEF4BAC6DEF4BBC6DEF4220E1C
:102CC000AF25006F000EB021016F20EE18F0AF515C
:102CD000D926B051DA22DEC402F6DEC403F6DEC421
:102CE00004F6DEC405F6000E076F010E066F20EE37
:102CF00001F0D451D926D551DA22DF5000ECD4F0BE
:102D00000009D8B486EF96F088EF96F08DEF96F034
:102D1000010E0601D66F8DEF96F00601D651D8B49C
:102D200094EF96F096EF96F09CEF96F0AFC6D9F43C
:102D3000B0C6DAF4DE6ADD6AD651120040C65BF630
:102D400041C65CF644C6D9F445C6DAF4DE6ADD6AEB
:102D50003EC6BCF53FC6BDF5670E0501BE6F060E4B
:102D6000BF6F7EECE3F00601566F5651D8A4BBEF5F
:102D700096F0BDEF96F0CDEF96F020EE0FF03E51BD
:102D8000D9263F51DA22DF50566F5651D8B4CBEFD7
:102D900096F0CDEF96F0D0EF96F056512DEF9AF0D9
:102DA00020EE0EF03E51D9263F51DA22DFB0DBEFA4
:102DB00096F0DDEF96F0E0EF96F0070E2DEF9AF02B
:102DC00020EE10F03E51D9263F51DA22DEC446F6FD
:102DD000DEC447F6DEC448F6DEC449F620EE0AF04B
:102DE0003E51D9263F51DA22DEC44AF6DEC44BF604
:102DF000DEC44CF6DEC44DF646514A5D526F475173
:102E00004B59536F48514C59546F49514D59556F57
:102E10004251466F4351476F486B496B4651525D73
:102E2000475153594851545949515559D8B01BEF3E
:102E300097F01DEF97F021EF97F052C642F653C678
:102E400043F642514311D8A428EF97F02AEF97F0A8
:102E50002CEF97F02CEF9AF020EE10F03E51D9268F
:102E60003F51DA22FF0EDE14466F010EDE14476F6B
:102E7000000EDE14486F000EDE14496F46514711F4
:102E800048114911D8A447EF97F049EF97F0BFEFE9
:102E900099F020EE10F03E51D9263F51DA22DEC4DF
:102EA00046F6DEC447F6DEC448F6DEC449F60A0E2E
:102EB0005FEF97F0D8904933483347334633E82ED5
:102EC0005AEF97F020EE0AF06751D9266851DA22BE
:102ED000DEC44AF6DDC44BF6FF0E4A254C6FFF0EEA
:102EE0004B214D6F46514C155D6F47514D155E6F2F
:102EF0005D515E11D8A47FEF97F081EF97F0FEEF60
:102F000097F020EE10F03E51D9263F51DA22DE50E4
:102F1000DE10DE10DE10D8A490EF97F092EF97F05D
:102F2000A2EF97F020EE06F03E51D9263F51DA226B
:102F3000DEC457F6DEC458F6DEC459F6DEC45AF6CF
:102F4000BEEF97F03EC624F63FC625F620EE14F0FD
:102F50003E51D9263F51DA22DEC426F6DEC427F6DA
:102F6000DEC428F6DEC429F630ECB0F024C657F6ED
:102F700025C658F626C659F627C65AF606015A51EE
:102F80005911581107E1020E575DD8B0CAEF97F0FA
:102F9000CCEF97F0D7EF97F020EE0FF03E51D92607
:102FA0003F51DA22020EDF6E020E2DEF9AF0572902
:102FB0000AE1582908E1592906E15A29D8A4E3EF82
:102FC00097F0E5EF97F0F0EF97F020EE0FF03E511D
:102FD000D9263F51DA22010EDF6E010E2DEF9AF055
:102FE00020EE14F03E51D9263F51DA2257C6DEF4C6
:102FF00058C6DEF459C6DEF45AC6DEF467C610F5CC
:1030000068C611F520EE14F03E51D9263F51DA2260
:10301000DEC412F5DEC413F5DEC414F5DEC415F506
:10302000C8ECE9F010C563F611C564F612C565F683
:1030300013C566F606016351641165116611D8A4C3
:1030400024EF98F026EF98F030EF98F020EE0FF094
:103050003E51D9263F51DA22020EDF6ED4EF97F0AF
:103060005D5163275E516423000E6523000E6623C5
:1030700042C646F643C647F6090E486FD890473316
:103080004633482F3EEF98F046C65FF647C660F6D7
:103090005F516011D8B44FEF98F051EF98F01AEFEC
:1030A00099F05F515D25466F60515E21476F20EEBC
:1030B0000AF06751D9266851DA224651DE5C475141
:1030C000DE58D8B066EF98F068EF98F078EF98F097
:1030D00020EE0AF06751D9266851DA22DEC446F69E
:1030E000DDC447F65D51465D5F6F5E514759606FC5
:1030F0005BC600F65CC601F663C602F664C603F65C
:1031000065C604F666C605F65FC606F660C607F62F
:1031100020EE01F06751D9266851DA22DF5000EC29
:10312000D4F00009D8B497EF98F099EF98F0A4EF95
:1031300098F0060120EE0FF03E51D9263F51DA22D9
:10314000010EDF6EEDEF97F0060120EE0EF03E511E
:10315000D9263F51DA22DFAEB0EF98F0B2EF98F007
:1031600008EF99F05F51466F6051476F486B496BAC
:1031700020EE18F03E51D9263F51DA22DEC44AF63D
:10318000DEC44BF6DEC44CF6DEC44DF663514A5D38
:103190004E6F64514B594F6F65514C59506F66518A
:1031A0004D59516F46514E5D47514F5948515059F5
:1031B00049515159D8B0DFEF98F0E1EF98F008EF9E
:1031C00099F020EE18F03E51D9263F51DA22DEC4A4
:1031D00046F6DDC447F66351465F6451475B090E0E
:1031E000D89046374737E82EF0EF98F046515B25E8
:1031F000046E47515C21056E220E3E25066E000EC0
:103200003F21076E020E096E000E086E91ECF8F079
:103210005FC646F660C647F6090ED89006014637E7
:103220004737E82E0DEF99F046C661F647C662F6BD
:103230000CEF9AF020EE18F03E51D9263F51DA22D9
:103240006351DE180FE16451DE180CE16551DE18A0
:1032500009E16651DE18D8B430EF99F032EF99F0F9
:10326000B0EF99F020EE0EF03E51D9263F51DA2210
:10327000DFAE3DEF99F03FEF99F082EF99F0220E2B
:103280003E250501F76F000E06013F210501F86F8D
:10329000060120EE18F03E51D9263F51DA22DEC455
:1032A000F9F5DEC4FAF5DEC4FBF5DEC4FCF5000E6C
:1032B0000501FE6F010EFD6F060120EE01F0675162
:1032C000D9266851DA22DF508DECD5F00009D8B448
:1032D0006CEF99F06EEF99F079EF99F0060120EE1E
:1032E0000FF03E51D9263F51DA22010EDF6EEDEF8D
:1032F00097F0060120EE0EF03E51D9263F51DA221A
:103300007F0EDF16220E3E25006F000E3F21016F5B
:1033100063C602F664C603F665C604F666C605F61D
:10332000000E076F010E066F20EE01F06751D926DF
:103330006851DA22DF5000ECD4F00009D8B4A3EFD2
:1033400099F0A5EF99F0B0EF99F0060120EE0FF09B
:103350003E51D9263F51DA22010EDF6EEDEF97F094
:10336000060120EE18F03E51D9263F51DA2263C6FD
:10337000DEF464C6DEF465C6DEF466C6DEF420EE76
:1033800010F03E51D9263F51DA22DEC446F6DDC4A4
:1033900047F6FF0E4615486F010E4715496F485115
:1033A0000008616F4951D8A0E82A0208626F615194
:1033B000425D62514359D8B0E0EF99F0E2EF99F0E5
:1033C000E6EF99F042C661F643C662F65BC604F5C5
:1033D0005CC605F520EE10F03E51D9263F51DA22A9
:1033E000DEC446F6DDC447F6FF0E4615486F010EF3
:1033F0004715496F48513E254A6F49513F214B6F50
:10340000220E4A25066E000E4B21076E61C608F596
:1034100062C609F591ECF8F006016151425F625114
:10342000435B44C6D9F445C6DAF46151DE266251E5
:10343000DD2261515B2762515C2320EE10F03E518A
:10344000D9263F51DA226151DE266251DE22000E7A
:10345000DE22DE2221EF97F0000E120095C5D9F48E
:1034600096C5DAF4DEC4F6F4DDC4F7F4000EF86EA7
:103470000800F550250AD8A440EF9AF042EF9AF0E0
:10348000A6EF9DF095C5D9F496C5DAF4DE2A000EB4
:10349000DD22000E07011B6F000E1A6F1AC75CF5C4
:1034A0001C691D6905019D6B76EF9AF05C8295C5DC
:1034B000D9F496C5DAF4DE2A000EDD2276EF9AF012
:1034C000010E9D6F76EF9AF095C5D9F496C5DAF4A2
:1034D000DEC4F6F4DDC4F7F4000EF86E0800F55013
:1034E000300AD8B456EF9AF060EF9AF09D51D8B4F4
:1034F0007CEF9AF07EEF9AF064EF9AF095C504F5B0
:1035000096C505F597C506F598C507F562ECE9F08F
:1035100004C51AF705C51BF707011BBF94EF9AF006
:1035200092EF9AF099EF9AF05C801A6D1B1FD8B059
:103530001B2B95C5D9F496C5DAF4DEC4F6F4DDC4C8
:10354000F7F4000EF86E0800F5502E0AD8A4ABEF81
:103550009AF0ADEF9AF0C2EF9AF095C5D9F496C5FE
:10356000DAF4DE2A000EDD2295C504F596C505F5D0
:1035700097C506F598C507F562ECE9F004C51CF798
:1035800005C51DF795C5D9F496C5DAF4DEC4F6F481
:10359000DDC4F7F4000EF86E0800F550630AD8A4F5
:1035A000D4EF9AF0D6EF9AF0FAEF9AF095C5D9F4E5
:1035B00096C5DAF4DE2A000EDD2297C5D9F498C547
:1035C000DAF4DFC499F5020EDE26DFC49AF5000EA8
:1035D000DD2299C5D9F49AC5DAF4DF500501A26F4E
:1035E00093C50EF594C50FF5A2C510F593ECEAF05E
:1035F000BCEF9DF095C5D9F496C5DAF4DEC4A3F509
:10360000DDC4A4F5A3C5F6F4A4C5F7F4000EF86E66
:103610000800F5C4A2F518EF9BF0A34BA42B30EFE4
:103620009BF0690EA26F30EF9BF0A26B30EF9BF026
:103630000501A251580AD8B411EF9BF03C0AD8B446
:1036400011EF9BF00D0AD8B411EF9BF0050AD8B426
:103650000DEF9BF0140AD8B411EF9BF015EF9BF01F
:10366000A3C5F6F4A4C5F7F4000EF86E0800F550F3
:10367000640AD8B43EEF9BF040EF9BF087EF9BF0DD
:10368000A3C5F6F4A4C5F7F4000EF86E0800F550D3
:10369000690AD8A44EEF9BF050EF9BF0B0EF9BF07F
:1036A00087EF9BF097C5D9F498C5DAF4DFC499F594
:1036B000020EDE26DFC49AF5000EDD2299C5D9F48C
:1036C0009AC5DAF4DEC49EF5DDC49FF5000E9FBFF7
:1036D000FF0EA06FA16F92EF9BF097C5D9F498C52C
:1036E000DAF4DFC499F5040EDE26DFC49AF5000E85
:1036F000DD2299C5D9F49AC5DAF4DEC49EF5DEC49C
:103700009FF5DEC4A0F5DEC4A1F592EF9BF0A251B7
:10371000690AD8B452EF9BF0050AD8B46DEF9BF05C
:1037200092EF9BF0010EA325996F000EA4219A6FD2
:1037300095C5D9F496C5DAF499C5DEF49AC5DDF4D9
:1037400093C51EF594C51FF59EC520F59FC521F5AF
:10375000A0C522F5A1C523F5CBECCAF0BCEF9DF0C6
:10376000A3C5F6F4A4C5F7F4000EF86E0800F550F2
:10377000780AD8B4BEEF9BF0C0EF9BF008EF9CF046
:10378000A3C5F6F4A4C5F7F4000EF86E0800F550D2
:10379000580AD8A4CEEF9BF0D0EF9BF04EEF9CF0F0
:1037A00008EF9CF097C5D9F498C5DAF4DFC499F511
:1037B000020EDE26DFC49AF5000EDD2299C5D9F48B
:1037C0009AC5DAF4DEC49BF5DDC49CF59BC59EF575
:1037D0009CC59FF5A06BA16B13EF9CF097C5D9F426
:1037E00098C5DAF4DFC499F5040EDE26DFC49AF535
:1037F000000EDD2299C5D9F49AC5DAF4DEC49EF52F
:10380000DEC49FF5DEC4A0F5DEC4A1F513EF9CF085
:10381000A251690AD8B4D2EF9BF0050AD8B4EEEFF2
:103820009BF013EF9CF0010EA325996F000EA421CD
:103830009A6F95C5D9F496C5DAF499C5DEF49AC5A0
:10384000DDF43CEF9CF093C51EF594C51FF59EC5B5
:1038500020F59FC521F5A0C522F5A1C523F5A3C577
:10386000F6F4A4C5F7F4000EF86E0800F5C424F5CC
:1038700053ECD6F0BCEF9DF0A3C5F6F4A4C5F7F465
:10388000000EF86E0800F550580AD8B423EF9CF0EB
:10389000200AD8B423EF9CF04EEF9CF09D6B95C5A9
:1038A000D9F496C5DAF4DEC4F6F4DDC4F7F4000EFC
:1038B000F86E0800F550730AD8A461EF9CF063EF2E
:1038C0009CF06EEF9CF095C5D9F496C5DAF4DE2A2B
:1038D000000EDD22010E9D6FC4EF9CF095C5D9F45A
:1038E00096C5DAF4DEC4F6F4DDC4F7F4000EF86E23
:1038F0000800F5506C0AD8A480EF9CF082EF9CF091
:10390000C4EF9CF095C5D9F496C5DAF4DEC499F5F8
:10391000DDC49AF5010E9927000E9A2399C5F6F495
:103920009AC5F7F4000EF86E0800F5506C0AD8A49A
:103930009CEF9CF09EEF9CF0C4EF9CF095C5D9F4F1
:1039400096C5DAF4DEC499F5DDC49AF5020E99271E
:10395000000E9A2399C5F6F49AC5F7F4000EF86E96
:103960000800F550730AD8A4B8EF9CF0BAEF9CF0A9
:10397000C4EF9CF0030E95C5D9F496C5DAF4DE26A3
:10398000000EDD226AEF9CF09D51D8B4CAEF9CF086
:10399000CCEF9CF0E8EF9CF093C50EF594C50FF5C5
:1039A00097C5D9F498C5DAF4DFC499F5020EDE267E
:1039B000DFC49AF5000EDD2299C5D9F49AC5DAF470
:1039C000DEC410F5DDC411F598ECD1F0BCEF9DF02C
:1039D00095C5D9F496C5DAF4DEC4A3F5DDC4A4F523
:1039E000A3C5F6F4A4C5F7F4000EF86E0800F5C4FC
:1039F000A2F506EF9DF0A34BA42B15EF9DF06C0EE6
:103A0000A26F15EF9DF0A26B15EF9DF0A2514C0A2D
:103A1000D8B4FBEF9CF02A0AD8B4FFEF9CF00A0A56
:103A2000D8B4FBEF9CF003EF9DF0A3C5F6F4A4C55A
:103A3000F7F4000EF86E0800F550660AD8A423EFDC
:103A40009DF025EF9DF09DEF9DF05BEF9DF097C5FC
:103A5000D9F498C5DAF4DFC499F5040EDE26DFC484
:103A60009AF5000EDD2299C5D9F49AC5DAF4DEC4C0
:103A70009EF5DEC49FF5DEC4A0F5DEC4A1F566EFB9
:103A80009DF097C5D9F498C5DAF4DFC499F5040E12
:103A9000DE26DFC49AF5000EDD2299C5D9F49AC559
:103AA000DAF4DEC49EF5DEC49FF5DEC4A0F5DEC404
:103AB000A1F566EF9DF0A2514C0AD8B441EF9DF0FC
:103AC000200AD8B427EF9DF066EF9DF0010EA325E4
:103AD000996F000EA4219A6F95C5D9F496C5DAF4B2
:103AE00099C5DEF49AC5DDF48FEF9DF093C560F5BE
:103AF00094C561F59EC562F59FC563F5A0C564F5E3
:103B0000A1C565F5A3C5F6F4A4C5F7F4000EF86EDB
:103B10000800F5C466F562EC85F0BCEF9DF0A3C526
:103B2000F6F4A4C5F7F4000EF86E0800F550660A26
:103B3000D8B476EF9DF09DEF9DF095C5D9F496C56C
:103B4000DAF4DE2A000EDD22BCEF9DF095C5D9F433
:103B500096C5DAF4DEC4F6F4DDC4F7F4000EF86EB0
:103B60000800F550056E066A93C507F594C508F57B
:103B7000F8ECEAF09DEF9DF0120045C6D9F446C678
:103B8000DAF4DEC45CF6DDC45DF606014751481187
:103B900049114A11D8A4CFEF9DF0D1EF9DF009EF64
:103BA0009EF020EE0CF05C51D9265D51DA22DEC485
:103BB00054F6DEC455F6DEC456F6DEC457F654514C
:103BC000551156115711D8B4E8EF9DF0EAEF9DF06A
:103BD000FFEF9DF020EE14F05C51D9265D51DA2202
:103BE000DE50545DDE505559DE505659DE5057595F
:103BF000D8A0FDEF9DF0FFEF9DF06EEF9EF0010E5F
:103C0000546F000E556F000E566F000E576F6EEF1B
:103C10009EF045C624F646C625F647C626F648C693
:103C200027F649C628F64AC629F630ECB0F024C675
:103C30005EF625C65FF626C660F627C661F6060163
:103C4000615160115F1107E1020E5E5DD8B02BEF8C
:103C50009EF02DEF9EF037EF9EF0010E456F000EA7
:103C6000466F000E476F000E486F94EFA0F05E297C
:103C70000AE15F2908E1602906E16129D8A443EF40
:103C80009EF045EF9EF04FEF9EF05EC645F65FC694
:103C900046F660C647F661C648F694EFA0F020EEFF
:103CA00014F05C51D9265D51DA22DE505E5DDE50A3
:103CB0005F59DE506059DE506159D8B062EF9EF016
:103CC00064EF9EF066EF9EF045EF9EF047C654F617
:103CD00048C655F649C656F64AC657F620EE10F0C5
:103CE0005C51D9265D51DA22DE50DE10DE10DE1086
:103CF000D8A47DEF9EF07FEF9EF089EF9EF0000E3E
:103D0000456F000E466F000E476F000E486F94EF30
:103D1000A0F0000E586F000E596F000E5A6F000E83
:103D20005B6F475154190DE1485155190AE149514A
:103D3000561907E14A515719D8A4A1EF9EF0A3EFF5
:103D40009EF049EF9FF0010E5425586F000E55214B
:103D5000596F000E56215A6F000E57215B6F20EEEF
:103D600014F05C51D9265D51DA22DE50585DDE50E8
:103D70005959DE505A59DE505B59D8A0C2EF9EF017
:103D8000C4EF9EF0CCEF9EF0020E586F000E596FFC
:103D9000000E5A6F000E5B6F45C624F646C625F628
:103DA00058C626F659C627F65AC628F65BC629F61F
:103DB00030ECB0F024C65EF625C65FF626C660F687
:103DC00027C661F606015E055F1160116111D8B466
:103DD000ECEF9EF0EEEF9EF045EF9EF05E290AE1DB
:103DE0005F2908E1602906E16129D8A4FAEF9EF075
:103DF000FCEF9EF0FEEF9EF045EF9EF05E515F11EE
:103E000060116111D8B407EF9FF009EF9FF049EFFF
:103E10009FF020EE0CF05C51D9265D51DA22DEC411
:103E20005EF6DEC45FF6DEC460F6DEC461F66151A4
:103E300060115F1109E1020E5E5DD8A022EF9FF0D4
:103E400024EF9FF041EF9FF020EE14F05C51D92653
:103E50005D51DA22DE505E5DDE505F59DE50605902
:103E6000DE506159D8B037EF9FF039EF9FF041EF46
:103E70009FF05EC654F65FC655F660C656F661C63C
:103E800057F6000E586F000E596F000E5A6F000E55
:103E90005B6F585159115A115B11D8A452EF9FF022
:103EA00054EF9FF0E1EF9FF054C658F655C659F60F
:103EB00056C65AF657C65BF6010E5827000E592310
:103EC0005A235B2320EE14F05C51D9265D51DA228F
:103ED000DE50585DDE505959DE505A59DE505B595C
:103EE000D8A075EF9FF077EF9FF08EEF9FF0020E56
:103EF000586F000E596F000E5A6F000E5B6F5751CE
:103F00005611551107E1020E545DD8B08AEF9FF0AB
:103F10008CEF9FF08EEF9FF07FEF9EF045C624F66A
:103F200046C625F658C626F659C627F65AC628F6B6
:103F30005BC629F630ECB0F024C65EF625C65FF607
:103F400026C660F627C661F606015E515F11601154
:103F50006111D8A4AEEF9FF0B0EF9FF0B2EF9FF0E9
:103F6000E1EF9FF05E055F1160116111D8B4BBEF06
:103F70009FF0BDEF9FF045EF9EF05E290AE15F29BB
:103F800008E1602906E16129D8A4C9EF9FF0CBEFD1
:103F90009FF0CDEF9FF045EF9EF0545158190DE181
:103FA000555159190AE156515A1907E157515B19F0
:103FB000D8A4DDEF9FF0DFEF9FF05CEF9FF07FEF85
:103FC0009EF05CC624F65DC625F658C626F659C690
:103FD00027F65AC628F65BC629F6FF0E2A6FFF0E93
:103FE0002B6FFF0E2C6FFF0E2D6F95ECA0F00601CE
:103FF000536F5351D8A4FFEF9FF001EFA0F024EFCF
:10400000A0F04751481149114A11D8B40AEFA0F065
:104010000CEFA0F024EFA0F05CC624F65DC625F6F8
:1040200047C626F648C627F649C628F64AC629F6E0
:1040300058C62AF659C62BF65AC62CF65BC62DF67C
:1040400095ECA0F00601536F5351D8A42AEFA0F0CD
:104050002CEFA0F076EFA0F020EE0CF05C51D9260A
:104060005D51DA2258C6DEF459C6DEF45AC6DEF4D3
:104070005BC6DEF420EE10F05C51D9265D51DA22E9
:1040800010EE14F05C51E1265D51E222FE0EE624B2
:104090004F6FFF0EE620506FFF0EE620516FFF0EB0
:1040A000E620526FDE504F5DDE505059DE505159C0
:1040B000DE505259D8A05FEFA0F061EFA0F06CEF96
:1040C000A0F020EE10F05C51D9265D51DA22DE0618
:1040D000000EDE5ADE5ADE5A20EE05F05C51D9267B
:1040E0005D51DA22000EDB808CEFA0F05305D8B4CE
:1040F0007CEFA0F07EEFA0F088EFA0F0010E586FEB
:10410000000E596F000E5A6F000E5B6F8CEFA0F01F
:10411000586959695A695B6958C645F659C646F6E1
:104120005AC647F65BC648F61200020E0601446FF7
:1041300029512811271109E1020E265DD8A0A3EF0D
:10414000A0F0A5EFA0F009EFA3F020EE14F02451A9
:10415000D9262551DA22DE50265DDE502759DE5061
:104160002859DE502959D8B0B8EFA0F0BAEFA0F026
:1041700009EFA3F0F6EFA2F026C642F627C643F6F3
:10418000D89043312F6F42312E6F2E5142272F513D
:10419000432324C619F625C61AF620EE20F0245132
:1041A000D9262551DA22DEC42EF6DEC42FF6DEC46F
:1041B00030F6DEC431F642C632F643C633F6090E97
:1041C000346FD89033333233342FE1EFA0F03251D3
:1041D0002E251B6F33512F211C6F000E30211D6FB8
:1041E000000E31211E6F2EECEAF00601446F44519F
:1041F000D8B4FDEFA0F0FFEFA0F001EFA1F009EFC0
:10420000A3F0FF0E42152E6F010E43152F6F2E5196
:104210002425306F2F512521316F300E3025406F0E
:10422000000E3121416F424B432B26B11AEFA1F012
:104230001CEFA1F021EFA1F02AC63CF63D6B3BEF4D
:10424000A1F02A512E6F2F6B2E3B2F3BF00E2F1714
:104250002E510F0B2F13F00E2E1740C6D9F441C666
:10426000DAF4DF500F0B306F316B2E5130113C6F91
:104270002F5131113D6F40C6D9F441C6DAF43CC626
:10428000DFF420EE04F02451D9262551DA22010E64
:10429000DF6E24C619F625C61AF620EE20F024514A
:1042A000D9262551DA22DEC42EF6DEC42FF6DEC46E
:1042B00030F6DEC431F642C632F643C633F6090E96
:1042C000346FD89033333233342F61EFA1F0325151
:1042D0002E251B6F33512F211C6F000E30211D6FB7
:1042E000000E31211E6F2EECEAF00601446F44519E
:1042F000D8B47DEFA1F07FEFA1F081EFA1F009EF3D
:10430000A3F0FF0E42152E6F010E43152F6F2E5195
:104310002425306F2F512521316F300E3025406F0D
:10432000000E3121416F26B198EFA1F09AEFA1F074
:10433000B8EFA1F02AC62EF62BC62FF62CC630F603
:104340002DC631F62FC62EF630C62FF631C630F602
:10435000316B0F0E2E1740C6D9F441C6DAF4DF5088
:10436000F00B2E11326F32513E6F3F6BCEEFA1F04A
:104370002AC62EF62BC62FF62CC630F62DC631F6E1
:10438000050EC8EFA1F0D890313330332F332E33E0
:10439000E82EC3EFA1F02E513E6F3F6B40C6D9F41B
:1043A00041C6DAF43EC6DFF420EE04F02451D926EB
:1043B0002551DA22010EDF6E09EFA3F024C619F6AB
:1043C00025C61AF620EE20F02451D9262551DA22EE
:1043D000DEC42EF6DEC42FF6DEC430F6DEC431F6BF
:1043E00026C632F627C633F628C634F629C635F671
:1043F00033C632F634C633F635C634F6356B2E5135
:1044000032251B6F2F5133211C6F305134211D6F0A
:10441000315135211E6F2EECEAF00601446F4451F4
:10442000D8B415EFA2F017EFA2F019EFA2F009EF40
:10443000A3F026C62EF627C62FF6D8902E372F3794
:10444000FF0E2E15306F010E2F15316F30512425C0
:10445000326F31512521336F300E3225046E000E3C
:104460003321056E2AC606F52BC607F5D0ECFAF007
:10447000060120EE04F02451D9262551DA22010E3E
:10448000DF6E09EFA3F024C619F625C61AF620EE52
:1044900020F02451D9262551DA22DEC42EF6DEC4BE
:1044A0002FF6DEC430F6DEC431F626C632F627C655
:1044B00033F628C634F629C635F6080E65EFA2F0A5
:1044C000D8903533343333333233E82E60EFA2F0F3
:1044D0002E5132251B6F2F5133211C6F3051342147
:1044E0001D6F315135211E6F2EECEAF00601446F2D
:1044F0004451D8B47EEFA2F080EFA2F082EFA2F098
:1045000009EFA3F026C62EF627C62FF6D8902E3731
:104510002F37D8902E372F37FF0E2E15306F010E04
:104520002F15316F30512425326F31512521336FD2
:10453000300E3225046E000E3321056EBFECEBF019
:10454000000E04140601346F000E0514356F000EC2
:104550000614366FF00E0714376FFF0E2A15386FEA
:10456000FF0E2B15396FFF0E2C153A6F0F0E2D1500
:104570003B6F345138112A6F355139112B6F365139
:104580003A112C6F37513B112D6F26C62EF627C6D8
:104590002FF6D8902E372F37D8902E372F37FF0E83
:1045A0002E15306F010E2F15316F30512425326FCB
:1045B00031512521336F300E3225046E000E332128
:1045C000056E2AC606F52BC607F52CC608F52DC6BE
:1045D00009F55BECF5F0060120EE04F02451D92634
:1045E0002551DA22010EDF6E09EFA3F024C6D9F4BB
:1045F00025C6DAF4DF50010AD8B4BCEFA0F0030AF4
:10460000D8B4DEEFA1F0010AD8B443EFA2F009EF6D
:10461000A3F044511200790E0701066F070E076FD1
:10462000C7C508F7C8C509F70A9106C7CCF507C77B
:10463000CDF5CCC504F5CDC505F5A4ECFAF05A507E
:104640005B10D8B426EFA3F028EFA3F02FEFA3F070
:104650006D0E0501AD6FFB0EAE6FE4ECFAF0CCC54C
:10466000BBF5CDC5BCF5C3C5BDF5C4C5BEF5010ED2
:104670000501BF6F000EC06F9AECDEF0CCC508F5E7
:10468000CDC509F51BECFBF0CCC50EF5CDC50FF57E
:10469000000E116E0A0E106E8CECF6F0BBECFAF008
:1046A000000E2B6E000E2C6E000E2D6E000E2E6E68
:1046B000CE0E2F6E050E306E000E326E010E316E74
:1046C000000EEEECF3F05A505B10D8B46AEFA3F092
:1046D0006CEFA3F076EFA3F0C20E0501AD6FFC0EF8
:1046E000AE6FCEC5AFF5B06BE4ECFAF00501CE05C8
:1046F000D8B47DEFA3F07FEFA3F095EFA3F05A506D
:104700005B10D8B486EFA3F088EFA3F08EEFA3F090
:10471000550EAD6FFE0EAE6FE4ECFAF0000E050123
:10472000C46F010EC36F67EFA5F0AA0E2B6E010ECA
:104730002C6E000E2D6E000E2E6ECE0E2F6E050E00
:10474000306E000E326E050E316E080EEEECF3F098
:104750005A505B10D8B4AFEFA3F0B1EFA3F0C7EF9E
:10476000A3F0E60E0501AD6FF70EAE6FCEC5AFF547
:10477000B06BCFC5B1F5B26BD0C5B3F5B46BD1C5D5
:10478000B5F5B66BD2C5B7F5B86BE4ECFAF0050138
:10479000CE05D8A4CEEFA3F0D0EFA3F0E0EFA3F0C6
:1047A000D1A1D5EFA3F0D7EFA3F0E0EFA3F0AA0ECD
:1047B000D219D8B4DEEFA3F0E0EFA3F0F6EFA3F048
:1047C0005A505B10D8B4E7EFA3F0E9EFA3F0EFEF96
:1047D000A3F0A90EAD6FFC0EAE6FE4ECFAF0000E84
:1047E0000501C46F020EC36F67EFA5F0000ECB6F1B
:1047F000000ECA6FCBBF06EFA4F0B80ECA5D0B0E59
:10480000CB59D8A006EFA4F008EFA4F00AEFA4F06B
:104810003FEFA4F0000E2B6E000E2C6E000E2D6EDE
:10482000000E2E6ECE0E2F6E050E306E000E326E06
:10483000010E316E370EEEECF3F0000E2B6E000E13
:104840002C6E000E2D6E400E2E6ECE0E2F6E050EAF
:10485000306E000E326E050E316E290EEEECF3F066
:104860000501CE51D8A437EFA4F039EFA4F03BEF07
:10487000A4F03FEFA4F0CA4BCB2BFAEFA3F05A50B1
:104880005B10D8B446EFA4F048EFA4F051EFA4F0C9
:10489000F50EAD6FFB0EAE6FCEC5AFF5B06BE4ECB1
:1048A000FAF00501CE51D8B458EFA4F05AEFA4F0B5
:1048B0006EEFA4F05A505B10D8B461EFA4F063EF30
:1048C000A4F08EEFA3F0F50EAD6FF90EAE6FCEC56E
:1048D000AFF5B06BE4ECFAF08EEFA3F0000E2B6EA8
:1048E000000E2C6E000E2D6E000E2E6ECE0E2F6E54
:1048F000050E306E000E326E050E316E3A0EEEEC85
:10490000F3F05A505B10D8B488EFA4F08AEFA4F00B
:10491000A0EFA4F08B0E0501AD6FF70EAE6FCEC504
:10492000AFF5B06BCFC5B1F5B26BD0C5B3F5B46B15
:10493000D1C5B5F5B66BD2C5B7F5B86BE4ECFAF0F6
:10494000CEC5C9F5FE0E0501C917D8B4AAEFA4F06B
:10495000ACEFA4F0C5EFA4F05A505B10D8B4B3EF9D
:10496000A4F0B5EFA4F0BEEFA4F0D10EAD6FF90E38
:10497000AE6FCEC5AFF5B06BE4ECFAF0000E0501FA
:10498000C46F030EC36F67EFA5F0CFBDCAEFA4F0ED
:10499000CCEFA4F0DDEFA4F05A505B10D8B4D3EF05
:1049A000A4F0D5EFA4F0EFEFA3F0970EAD6FF80EE3
:1049B000AE6FE4ECFAF0EFEFA3F05A505B10D8B40E
:1049C000E4EFA4F0E6EFA4F0ECEFA4F03C0EAD6F42
:1049D000F90EAE6FE4ECFAF00501CFBFF2EFA4F0F0
:1049E000F4EFA4F005EFA5F05A505B10D8B4FBEF3C
:1049F000A4F0FDEFA4F0BEEFA4F0EC0EAD6FF80E46
:104A0000AE6FE4ECFAF0BEEFA4F05A505B10D8B4ED
:104A10000CEFA5F00EEFA5F014EFA5F07A0EAD6F38
:104A2000FE0EAE6FE4ECFAF0010E2B6E000E2C6E53
:104A3000000E2D6E000E2E6ECE0E2F6E050E306EF9
:104A4000000E326E010E316E3B0EEEECF3F00501FE
:104A5000CE51D8B42EEFA5F030EFA5F044EFA5F07D
:104A60005A505B10D8B437EFA5F039EFA5F0BEEF80
:104A7000A4F05D0EAD6FFA0EAE6FCEC5AFF5B06BA4
:104A8000E4ECFAF0BEEFA4F0CCC5BBF5CDC5BCF5A7
:104A9000C5C5BDF5C6C5BEF5010EBF6F000EC06F22
:104AA0009AECDEF05A505B10D8B459EFA5F05BEFEA
:104AB000A5F062EFA5F0AD0E0501AD6FF90EAE6F7A
:104AC000E4ECFAF0000E0501C46F000EC36F120093
:104AD0000750800B106E07500724126E06AE73EF5E
:104AE000A5F075EFA5F076EFA5F012801250D8B4BE
:104AF0007CEFA5F07EEFA5F092EFA5F01228D8A4E8
:104B000084EFA5F086EFA5F08EEFA5F0000E046E01
:104B1000000E056E000E066E000E076E068E076A0A
:104B20009AEFA5F0000E046E000E056E000E066EE4
:104B3000000E076E0B50800B116E10501118D8B478
:104B4000A4EFA5F0A6EFA5F0A7EFA5F0108C0B50F1
:104B50000B24116E0AAEAFEFA5F0B1EFA5F0B2EFE6
:104B6000A5F011801150D8B4B8EFA5F0BAEFA5F0B8
:104B7000CEEFA5F01128D8A4C0EFA5F0C2EFA5F0A4
:104B8000CAEFA5F0000E086E000E096E000E0A6E48
:104B9000000E0B6E0A8E0B6AD6EFA5F0000E086EA3
:104BA000000E096E000E0A6E000E0B6E1250115CA4
:104BB000D8B0DDEFA5F0DFEFA5F006EFA6F010AC62
:104BC000E4EFA5F0E6EFA5F0E8EFA5F0800E101AEF
:104BD00012C513F511C512F513C511F504C513F56A
:104BE00008C504F513C508F505C513F509C505F590
:104BF00013C509F506C513F50AC506F513C50AF56B
:104C000007C513F50BC507F513C50BF5136A12504D
:104C100011C50CF50D6A0C5E000E0D5A0DBE1AEF93
:104C2000A6F00D5009E11A0E0C5CD8A01AEFA6F000
:104C30001CEFA6F053EFA6F0045005100610071065
:104C4000D8A425EFA6F028EFA6F0010E29EFA6F0D4
:104C5000000E136E000E046E000E056E000E066E42
:104C6000000E076E11C512F55CEFA6F013A03BEF26
:104C7000A6F03DEFA6F043EFA6F0D890133001095F
:104C8000136E45EFA6F0D890133204A04AEFA6F0B9
:104C90004CEFA6F04DEFA6F0138E07340732063224
:104CA00005320432122A1150125CD8A05AEFA6F035
:104CB0005CEFA6F036EFA6F010BC61EFA6F063EF54
:104CC000A6F0A3EFA6F01250D8A469EFA6F06BEF00
:104CD000A6F075EFA6F0000E046E000E056E000E35
:104CE000066E000E076EC2EFA7F0085004260950AA
:104CF00005220A5006220B50072207A082EFA6F0D9
:104D000084EFA6F030EFA7F013A089EFA6F08BEFA9
:104D1000A6F091EFA6F0D89013300109136E93EF2F
:104D2000A6F0D890133204A098EFA6F09AEFA6F060
:104D30009BEFA6F0138E0734073206320532043299
:104D4000122A30EFA7F00850045C095005580A50A9
:104D500006580750800A0C6E0B50800A0C58D8B0C9
:104D6000B4EFA6F0B6EFA6F0E1EFA6F00450085CB1
:104D70000C6E055009580D6E06500A580E6E0750FD
:104D80000B580F6EFF0E0C24046EFF0E0D20056EE7
:104D9000FF0E0E20066EFF0E0F20076E800E101AFB
:104DA000136C1350D8A4D7EFA6F0D9EFA6F0E9EF13
:104DB000A6F0010E0426000E052206220722E9EFC6
:104DC000A6F00850045E0950055A0A50065A0B50C6
:104DD000075A0450051006100710D8A4F2EFA6F0E9
:104DE000F4EFA6F029EFA7F01350D8A4FAEFA6F03D
:104DF000FCEFA6F029EFA7F0000E046E000E056E82
:104E0000000E066E000E076EC2EFA7F0D8900436B3
:104E100005360636073613AE10EFA7F012EFA7F0EF
:104E200013EFA7F0048013A018EFA7F01AEFA7F074
:104E30001EEFA7F0D880133620EFA7F0D8901336D6
:104E40001250D8B426EFA7F028EFA7F029EFA7F06B
:104E5000120606AE2EEFA7F030EFA7F006EFA7F090
:104E6000116A13AE36EFA7F038EFA7F050EFA7F0B6
:104E700013C50CF57F0E0C16D8B441EFA7F043EF25
:104E8000A7F047EFA7F0010E116E50EFA7F004A0B6
:104E90004CEFA7F04EEFA7F050EFA7F043EFA7F0CD
:104EA0001150D8B456EFA7F058EFA7F083EFA7F052
:104EB000010E0426000E05220622072207A063EF3A
:104EC000A7F065EFA7F083EFA7F004C50CF505C5C3
:104ED0000DF506C50EF507C50FF50F340F320E326E
:104EE0000D320C320CC504F50DC505F50EC506F5E1
:104EF0000FC507F51228D8B480EFA7F082EFA7F00E
:104F000083EFA7F0122A1228D8B489EFA7F08BEF0D
:104F1000A7F093EFA7F01250D8A491EFA7F093EF6A
:104F2000A7F0A4EFA7F0000E046E000E056E000EB1
:104F3000066E000E076E1250D8A4A1EFA7F0A3EFE3
:104F4000A7F0A4EFA7F0106A12A0A9EFA7F0ABEFAB
:104F5000A7F0AEEFA7F0068EAFEFA7F0069ED890B1
:104F60001230076E10AEB7EFA7F0B9EFA7F0BAEFA7
:104F7000A7F0078E04C504F505C505F506C506F5B9
:104F800007C507F512000501C96B73C70FF574C794
:104F900010F5D00E116E050E126ECC0E136E050EAE
:104FA000146ECE0E156E050E166E33ECDFF0050195
:104FB000D15109E1500ED05DD8A0E1EFA7F0E3EFA9
:104FC000A7F0E9EFA7F06C0ED027070ED123EDEF85
